{
  "_format": "hh-sol-artifact-1",
  "contractName": "Faucet",
  "sourceName": "contracts/Faucet.sol",
  "abi": [
    {
      "inputs": [],
      "stateMutability": "payable",
      "type": "constructor"
    },
    {
      "inputs": [],
      "name": "deposit",
      "outputs": [],
      "stateMutability": "payable",
      "type": "function"
    },
    {
      "inputs": [],
      "name": "owner",
      "outputs": [
        {
          "internalType": "address",
          "name": "",
          "type": "address"
        }
      ],
      "stateMutability": "view",
      "type": "function"
    },
    {
      "inputs": [
        {
          "internalType": "uint256",
          "name": "_amount",
          "type": "uint256"
        }
      ],
      "name": "withdraw",
      "outputs": [],
      "stateMutability": "payable",
      "type": "function"
    }
  ],
  "bytecode": "0x6080604052336000806101000a81548173ffffffffffffffffffffffffffffffffffffffff021916908373ffffffffffffffffffffffffffffffffffffffff160217905550610276806100536000396000f3fe6080604052600436106100345760003560e01c80632e1a7d4d146100395780638da5cb5b14610055578063d0e30db014610080575b600080fd5b610053600480360381019061004e9190610154565b61008a565b005b34801561006157600080fd5b5061006a610119565b60405161007791906101c4565b60405180910390f35b61008861013d565b005b67016345785d8a000081111561009f57600080fd5b60003373ffffffffffffffffffffffffffffffffffffffff16826040516100c5906101af565b60006040518083038185875af1925050503d8060008114610102576040519150601f19603f3d011682016040523d82523d6000602084013e610107565b606091505b505090508061011557600080fd5b5050565b60008054906101000a900473ffffffffffffffffffffffffffffffffffffffff1681565b565b60008135905061014e81610229565b92915050565b60006020828403121561016657600080fd5b60006101748482850161013f565b91505092915050565b610186816101ea565b82525050565b60006101996000836101df565b91506101a482610226565b600082019050919050565b60006101ba8261018c565b9150819050919050565b60006020820190506101d9600083018461017d565b92915050565b600081905092915050565b60006101f5826101fc565b9050919050565b600073ffffffffffffffffffffffffffffffffffffffff82169050919050565b6000819050919050565b50565b6102328161021c565b811461023d57600080fd5b5056fea26469706673582212206c96f536d01faa22e2f5065dc881e4e5833e15603fe92b42a3f34c9d1886bc1564736f6c63430008040033",
  "linkReferences": {},
  "deployedLinkReferences": {}
}